{
  "_format": "hh-sol-artifact-1",
  "contractName": "MyEpicNFT",
  "sourceName": "contracts/MyEpicNFT.sol",
  "abi": [
    {
      "inputs": [],
      "stateMutability": "nonpayable",
      "type": "constructor"
    },
    {
      "anonymous": false,
      "inputs": [
        {
          "indexed": true,
          "internalType": "address",
          "name": "owner",
          "type": "address"
        },
        {
          "indexed": true,
          "internalType": "address",
          "name": "approved",
          "type": "address"
        },
        {
          "indexed": true,
          "internalType": "uint256",
          "name": "tokenId",
          "type": "uint256"
        }
      ],
      "name": "Approval",
      "type": "event"
    },
    {
      "anonymous": false,
      "inputs": [
        {
          "indexed": true,
          "internalType": "address",
          "name": "owner",
          "type": "address"
        },
        {
          "indexed": true,
          "internalType": "address",
          "name": "operator",
          "type": "address"
        },
        {
          "indexed": false,
          "internalType": "bool",
          "name": "approved",
          "type": "bool"
        }
      ],
      "name": "ApprovalForAll",
      "type": "event"
    },
    {
      "anonymous": false,
      "inputs": [
        {
          "indexed": false,
          "internalType": "address",
          "name": "sender",
          "type": "address"
        },
        {
          "indexed": false,
          "internalType": "uint256",
          "name": "tokenId",
          "type": "uint256"
        }
      ],
      "name": "NewEpicNFTMinted",
      "type": "event"
    },
    {
      "anonymous": false,
      "inputs": [
        {
          "indexed": true,
          "internalType": "address",
          "name": "from",
          "type": "address"
        },
        {
          "indexed": true,
          "internalType": "address",
          "name": "to",
          "type": "address"
        },
        {
          "indexed": true,
          "internalType": "uint256",
          "name": "tokenId",
          "type": "uint256"
        }
      ],
      "name": "Transfer",
      "type": "event"
    },
    {
      "inputs": [],
      "name": "MAX_SUPPLY",
      "outputs": [
        {
          "internalType": "uint256",
          "name": "",
          "type": "uint256"
        }
      ],
      "stateMutability": "view",
      "type": "function"
    },
    {
      "inputs": [
        {
          "internalType": "address",
          "name": "to",
          "type": "address"
        },
        {
          "internalType": "uint256",
          "name": "tokenId",
          "type": "uint256"
        }
      ],
      "name": "approve",
      "outputs": [],
      "stateMutability": "nonpayable",
      "type": "function"
    },
    {
      "inputs": [
        {
          "internalType": "address",
          "name": "owner",
          "type": "address"
        }
      ],
      "name": "balanceOf",
      "outputs": [
        {
          "internalType": "uint256",
          "name": "",
          "type": "uint256"
        }
      ],
      "stateMutability": "view",
      "type": "function"
    },
    {
      "inputs": [
        {
          "internalType": "uint256",
          "name": "tokenId",
          "type": "uint256"
        }
      ],
      "name": "getApproved",
      "outputs": [
        {
          "internalType": "address",
          "name": "",
          "type": "address"
        }
      ],
      "stateMutability": "view",
      "type": "function"
    },
    {
      "inputs": [],
      "name": "getCurrentTokenIds",
      "outputs": [
        {
          "internalType": "uint256",
          "name": "",
          "type": "uint256"
        }
      ],
      "stateMutability": "view",
      "type": "function"
    },
    {
      "inputs": [],
      "name": "getMaxSupply",
      "outputs": [
        {
          "internalType": "uint256",
          "name": "",
          "type": "uint256"
        }
      ],
      "stateMutability": "pure",
      "type": "function"
    },
    {
      "inputs": [
        {
          "internalType": "address",
          "name": "owner",
          "type": "address"
        },
        {
          "internalType": "address",
          "name": "operator",
          "type": "address"
        }
      ],
      "name": "isApprovedForAll",
      "outputs": [
        {
          "internalType": "bool",
          "name": "",
          "type": "bool"
        }
      ],
      "stateMutability": "view",
      "type": "function"
    },
    {
      "inputs": [],
      "name": "makeAnEpicNFT",
      "outputs": [],
      "stateMutability": "nonpayable",
      "type": "function"
    },
    {
      "inputs": [],
      "name": "name",
      "outputs": [
        {
          "internalType": "string",
          "name": "",
          "type": "string"
        }
      ],
      "stateMutability": "view",
      "type": "function"
    },
    {
      "inputs": [
        {
          "internalType": "uint256",
          "name": "tokenId",
          "type": "uint256"
        }
      ],
      "name": "ownerOf",
      "outputs": [
        {
          "internalType": "address",
          "name": "",
          "type": "address"
        }
      ],
      "stateMutability": "view",
      "type": "function"
    },
    {
      "inputs": [
        {
          "internalType": "uint256",
          "name": "tokenId",
          "type": "uint256"
        }
      ],
      "name": "pickRandomFirstWord",
      "outputs": [
        {
          "internalType": "string",
          "name": "",
          "type": "string"
        }
      ],
      "stateMutability": "view",
      "type": "function"
    },
    {
      "inputs": [
        {
          "internalType": "uint256",
          "name": "tokenId",
          "type": "uint256"
        }
      ],
      "name": "pickRandomSecondWord",
      "outputs": [
        {
          "internalType": "string",
          "name": "",
          "type": "string"
        }
      ],
      "stateMutability": "view",
      "type": "function"
    },
    {
      "inputs": [
        {
          "internalType": "uint256",
          "name": "tokenId",
          "type": "uint256"
        }
      ],
      "name": "pickRandomThirdWord",
      "outputs": [
        {
          "internalType": "string",
          "name": "",
          "type": "string"
        }
      ],
      "stateMutability": "view",
      "type": "function"
    },
    {
      "inputs": [
        {
          "internalType": "address",
          "name": "from",
          "type": "address"
        },
        {
          "internalType": "address",
          "name": "to",
          "type": "address"
        },
        {
          "internalType": "uint256",
          "name": "tokenId",
          "type": "uint256"
        }
      ],
      "name": "safeTransferFrom",
      "outputs": [],
      "stateMutability": "nonpayable",
      "type": "function"
    },
    {
      "inputs": [
        {
          "internalType": "address",
          "name": "from",
          "type": "address"
        },
        {
          "internalType": "address",
          "name": "to",
          "type": "address"
        },
        {
          "internalType": "uint256",
          "name": "tokenId",
          "type": "uint256"
        },
        {
          "internalType": "bytes",
          "name": "_data",
          "type": "bytes"
        }
      ],
      "name": "safeTransferFrom",
      "outputs": [],
      "stateMutability": "nonpayable",
      "type": "function"
    },
    {
      "inputs": [
        {
          "internalType": "address",
          "name": "operator",
          "type": "address"
        },
        {
          "internalType": "bool",
          "name": "approved",
          "type": "bool"
        }
      ],
      "name": "setApprovalForAll",
      "outputs": [],
      "stateMutability": "nonpayable",
      "type": "function"
    },
    {
      "inputs": [
        {
          "internalType": "bytes4",
          "name": "interfaceId",
          "type": "bytes4"
        }
      ],
      "name": "supportsInterface",
      "outputs": [
        {
          "internalType": "bool",
          "name": "",
          "type": "bool"
        }
      ],
      "stateMutability": "view",
      "type": "function"
    },
    {
      "inputs": [],
      "name": "symbol",
      "outputs": [
        {
          "internalType": "string",
          "name": "",
          "type": "string"
        }
      ],
      "stateMutability": "view",
      "type": "function"
    },
    {
      "inputs": [
        {
          "internalType": "uint256",
          "name": "tokenId",
          "type": "uint256"
        }
      ],
      "name": "tokenURI",
      "outputs": [
        {
          "internalType": "string",
          "name": "",
          "type": "string"
        }
      ],
      "stateMutability": "view",
      "type": "function"
    },
    {
      "inputs": [
        {
          "internalType": "address",
          "name": "from",
          "type": "address"
        },
        {
          "internalType": "address",
          "name": "to",
          "type": "address"
        },
        {
          "internalType": "uint256",
          "name": "tokenId",
          "type": "uint256"
        }
      ],
      "name": "transferFrom",
      "outputs": [],
      "stateMutability": "nonpayable",
      "type": "function"
    }
  ],
  "bytecode": "0x608060405260405180610160016040528061012f8152602001620044fc61012f9139600890805190602001906200003892919062000557565b5060405180602001604052806040518060400160405280600c81526020017f4261636b20746f2074686520000000000000000000000000000000000000000081525081525060099060016200008f929190620005e8565b506040518060c001604052806040518060400160405280600781526020017f467574757265200000000000000000000000000000000000000000000000000081525081526020016040518060400160405280600681526020017f486f75736520000000000000000000000000000000000000000000000000000081525081526020016040518060400160405280600781526020017f5363686f6f6c200000000000000000000000000000000000000000000000000081525081526020016040518060400160405280600781526020017f546f696c6574200000000000000000000000000000000000000000000000000081525081526020016040518060400160405280600581526020017f486f6c652000000000000000000000000000000000000000000000000000000081525081526020016040518060400160405280600881526020017f4b696e67646f6d20000000000000000000000000000000000000000000000000815250815250600a9060066200020d9291906200064f565b506040518060c001604052806040518060400160405280600181526020017f310000000000000000000000000000000000000000000000000000000000000081525081526020016040518060400160405280600181526020017f320000000000000000000000000000000000000000000000000000000000000081525081526020016040518060400160405280600181526020017f330000000000000000000000000000000000000000000000000000000000000081525081526020016040518060400160405280600181526020017f340000000000000000000000000000000000000000000000000000000000000081525081526020016040518060400160405280600181526020017f350000000000000000000000000000000000000000000000000000000000000081525081526020016040518060400160405280600181526020017f3600000000000000000000000000000000000000000000000000000000000000815250815250600b9060066200038b9291906200064f565b503480156200039957600080fd5b506040518060400160405280600981526020017f5371756172654e465400000000000000000000000000000000000000000000008152506040518060400160405280600681526020017f535155415245000000000000000000000000000000000000000000000000000081525081600090805190602001906200041e92919062000557565b5080600190805190602001906200043792919062000557565b505050620004856040518060400160405280601881526020017f54686973206973206d79204e465420636f6e74726163742e00000000000000008152506200048b60201b620012781760201c565b62000870565b6200052b81604051602401620004a2919062000784565b6040516020818303038152906040527f41304fac000000000000000000000000000000000000000000000000000000007bffffffffffffffffffffffffffffffffffffffffffffffffffffffff19166020820180517bffffffffffffffffffffffffffffffffffffffffffffffffffffffff83818316178352505050506200052e60201b60201c565b50565b60008151905060006a636f6e736f6c652e6c6f679050602083016000808483855afa5050505050565b8280546200056590620007fa565b90600052602060002090601f016020900481019282620005895760008555620005d5565b82601f10620005a457805160ff1916838001178555620005d5565b82800160010185558215620005d5579182015b82811115620005d4578251825591602001919060010190620005b7565b5b509050620005e49190620006b6565b5090565b8280548282559060005260206000209081019282156200063c579160200282015b828111156200063b5782518290805190602001906200062a92919062000557565b509160200191906001019062000609565b5b5090506200064b9190620006d5565b5090565b828054828255906000526020600020908101928215620006a3579160200282015b82811115620006a25782518290805190602001906200069192919062000557565b509160200191906001019062000670565b5b509050620006b29190620006d5565b5090565b5b80821115620006d1576000816000905550600101620006b7565b5090565b5b80821115620006f95760008181620006ef9190620006fd565b50600101620006d6565b5090565b5080546200070b90620007fa565b6000825580601f106200071f575062000740565b601f0160209004906000526020600020908101906200073f9190620006b6565b5b50565b60006200075082620007a8565b6200075c8185620007b3565b93506200076e818560208601620007c4565b62000779816200085f565b840191505092915050565b60006020820190508181036000830152620007a0818462000743565b905092915050565b600081519050919050565b600082825260208201905092915050565b60005b83811015620007e4578082015181840152602081019050620007c7565b83811115620007f4576000848401525b50505050565b600060028204905060018216806200081357607f821691505b602082108114156200082a576200082962000830565b5b50919050565b7f4e487b7100000000000000000000000000000000000000000000000000000000600052602260045260246000fd5b6000601f19601f8301169050919050565b613c7c80620008806000396000f3fe608060405234801561001057600080fd5b506004361061012c5760003560e01c80636352211e116100ad578063b88d4fde11610071578063b88d4fde14610357578063c575757a14610373578063c87b56dd146103a3578063de9d132f146103d3578063e985e9c5146103dd5761012c565b80636352211e1461028d57806370a08231146102bd57806395d89b41146102ed578063a22cb4651461030b578063b187301f146103275761012c565b806323b872dd116100f457806323b872dd146101e95780632de38d681461020557806332cb6b0c1461023557806342842e0e146102535780634c0f38c21461026f5761012c565b806301ffc9a71461013157806306fdde031461016157806307218cd11461017f578063081812fc1461019d578063095ea7b3146101cd575b600080fd5b61014b60048036038101906101469190612740565b61040d565b6040516101589190612e64565b60405180910390f35b6101696104ef565b6040516101769190612e7f565b60405180910390f35b610187610581565b604051610194919061310f565b60405180910390f35b6101b760048036038101906101b29190612792565b610597565b6040516101c49190612dd4565b60405180910390f35b6101e760048036038101906101e29190612704565b61061c565b005b61020360048036038101906101fe91906125fe565b610734565b005b61021f600480360381019061021a9190612792565b610794565b60405161022c9190612e7f565b60405180910390f35b61023d610930565b60405161024a919061310f565b60405180910390f35b61026d600480360381019061026891906125fe565b610935565b005b610277610955565b604051610284919061310f565b60405180910390f35b6102a760048036038101906102a29190612792565b610963565b6040516102b49190612dd4565b60405180910390f35b6102d760048036038101906102d29190612599565b610a15565b6040516102e4919061310f565b60405180910390f35b6102f5610acd565b6040516103029190612e7f565b60405180910390f35b610325600480360381019061032091906126c8565b610b5f565b005b610341600480360381019061033c9190612792565b610b75565b60405161034e9190612e7f565b60405180910390f35b610371600480360381019061036c919061264d565b610c93565b005b61038d60048036038101906103889190612792565b610cf5565b60405161039a9190612e7f565b60405180910390f35b6103bd60048036038101906103b89190612792565b610e13565b6040516103ca9190612e7f565b60405180910390f35b6103db610f65565b005b6103f760048036038101906103f291906125c2565b6111e4565b6040516104049190612e64565b60405180910390f35b60007f80ac58cd000000000000000000000000000000000000000000000000000000007bffffffffffffffffffffffffffffffffffffffffffffffffffffffff1916827bffffffffffffffffffffffffffffffffffffffffffffffffffffffff191614806104d857507f5b5e139f000000000000000000000000000000000000000000000000000000007bffffffffffffffffffffffffffffffffffffffffffffffffffffffff1916827bffffffffffffffffffffffffffffffffffffffffffffffffffffffff1916145b806104e857506104e782611311565b5b9050919050565b6060600080546104fe906133a3565b80601f016020809104026020016040519081016040528092919081815260200182805461052a906133a3565b80156105775780601f1061054c57610100808354040283529160200191610577565b820191906000526020600020905b81548152906001019060200180831161055a57829003601f168201915b5050505050905090565b60008061058e600761137b565b90508091505090565b60006105a282611389565b6105e1576040517f08c379a00000000000000000000000000000000000000000000000000000000081526004016105d89061308f565b60405180910390fd5b6004600083815260200190815260200160002060009054906101000a900473ffffffffffffffffffffffffffffffffffffffff169050919050565b600061062782610963565b90508073ffffffffffffffffffffffffffffffffffffffff168373ffffffffffffffffffffffffffffffffffffffff161415610698576040517f08c379a000000000000000000000000000000000000000000000000000000000815260040161068f906130cf565b60405180910390fd5b8073ffffffffffffffffffffffffffffffffffffffff166106b76113f5565b73ffffffffffffffffffffffffffffffffffffffff1614806106e657506106e5816106e06113f5565b6111e4565b5b610725576040517f08c379a000000000000000000000000000000000000000000000000000000000815260040161071c90612fcf565b60405180910390fd5b61072f83836113fd565b505050565b61074561073f6113f5565b826114b6565b610784576040517f08c379a000000000000000000000000000000000000000000000000000000000815260040161077b906130ef565b60405180910390fd5b61078f838383611594565b505050565b606060006107c86107a4846117fb565b6040516020016107b49190612d90565b6040516020818303038152906040526119a8565b90506108096040518060400160405280600d81526020017f72616e64202d20736565643a2000000000000000000000000000000000000000815250826119db565b6009805490508161081a919061344f565b905061085b6040518060400160405280601381526020017f72616e64202d20666972737420776f72643a2000000000000000000000000000815250826119db565b60098181548110610895577f4e487b7100000000000000000000000000000000000000000000000000000000600052603260045260246000fd5b9060005260206000200180546108aa906133a3565b80601f01602080910402602001604051908101604052809291908181526020018280546108d6906133a3565b80156109235780601f106108f857610100808354040283529160200191610923565b820191906000526020600020905b81548152906001019060200180831161090657829003601f168201915b5050505050915050919050565b603281565b61095083838360405180602001604052806000815250610c93565b505050565b600080603290508091505090565b6000806002600084815260200190815260200160002060009054906101000a900473ffffffffffffffffffffffffffffffffffffffff169050600073ffffffffffffffffffffffffffffffffffffffff168173ffffffffffffffffffffffffffffffffffffffff161415610a0c576040517f08c379a0000000000000000000000000000000000000000000000000000000008152600401610a039061300f565b60405180910390fd5b80915050919050565b60008073ffffffffffffffffffffffffffffffffffffffff168273ffffffffffffffffffffffffffffffffffffffff161415610a86576040517f08c379a0000000000000000000000000000000000000000000000000000000008152600401610a7d90612fef565b60405180910390fd5b600360008373ffffffffffffffffffffffffffffffffffffffff1673ffffffffffffffffffffffffffffffffffffffff168152602001908152602001600020549050919050565b606060018054610adc906133a3565b80601f0160208091040260200160405190810160405280929190818152602001828054610b08906133a3565b8015610b555780601f10610b2a57610100808354040283529160200191610b55565b820191906000526020600020905b815481529060010190602001808311610b3857829003601f168201915b5050505050905090565b610b71610b6a6113f5565b8383611a77565b5050565b60606000610ba9610b85846117fb565b604051602001610b959190612d29565b6040516020818303038152906040526119a8565b9050600a8054905081610bbc919061344f565b9050600a8181548110610bf8577f4e487b7100000000000000000000000000000000000000000000000000000000600052603260045260246000fd5b906000526020600020018054610c0d906133a3565b80601f0160208091040260200160405190810160405280929190818152602001828054610c39906133a3565b8015610c865780601f10610c5b57610100808354040283529160200191610c86565b820191906000526020600020905b815481529060010190602001808311610c6957829003601f168201915b5050505050915050919050565b610ca4610c9e6113f5565b836114b6565b610ce3576040517f08c379a0000000000000000000000000000000000000000000000000000000008152600401610cda906130ef565b60405180910390fd5b610cef84848484611be4565b50505050565b60606000610d29610d05846117fb565b604051602001610d159190612d07565b6040516020818303038152906040526119a8565b9050600b8054905081610d3c919061344f565b9050600b8181548110610d78577f4e487b7100000000000000000000000000000000000000000000000000000000600052603260045260246000fd5b906000526020600020018054610d8d906133a3565b80601f0160208091040260200160405190810160405280929190818152602001828054610db9906133a3565b8015610e065780601f10610ddb57610100808354040283529160200191610e06565b820191906000526020600020905b815481529060010190602001808311610de957829003601f168201915b5050505050915050919050565b6060610e1e82611389565b610e5d576040517f08c379a0000000000000000000000000000000000000000000000000000000008152600401610e549061306f565b60405180910390fd5b6000600660008481526020019081526020016000208054610e7d906133a3565b80601f0160208091040260200160405190810160405280929190818152602001828054610ea9906133a3565b8015610ef65780601f10610ecb57610100808354040283529160200191610ef6565b820191906000526020600020905b815481529060010190602001808311610ed957829003601f168201915b505050505090506000610f07611c40565b9050600081511415610f1d578192505050610f60565b600082511115610f52578082604051602001610f3a929190612c69565b60405160208183030381529060405292505050610f60565b610f5b84611c57565b925050505b919050565b6000610f71600761137b565b905060328110610f8157506111e2565b6000610f8c82610794565b90506000610f9983610b75565b90506000610fa684610cf5565b90506000838383604051602001610fbf93929190612c8d565b604051602081830303815290604052905060006008858585604051602001610fea9493929190612cbe565b60405160208183030381529060405290506110396040518060400160405280601581526020017f0a2d2d2d2d2d205356472064617461202d2d2d2d2d0000000000000000000000815250611278565b61104281611278565b6110806040518060400160405280601581526020017f2d2d2d2d2d2d2d2d2d2d2d2d2d2d2d2d2d2d2d2d0a0000000000000000000000815250611278565b60006110b48361108f84611cfe565b6040516020016110a0929190612d4b565b604051602081830303815290604052611cfe565b90506000816040516020016110c99190612db2565b60405160208183030381529060405290506111186040518060400160405280601581526020017f0a2d2d2d2d2d20546f6b656e20555249202d2d2d2d0000000000000000000000815250611278565b61112181611278565b61115f6040518060400160405280601581526020017f2d2d2d2d2d2d2d2d2d2d2d2d2d2d2d2d2d2d2d2d0a0000000000000000000000815250611278565b6111693389611ebc565b6111738882611eda565b611196604051806060016040528060258152602001613be2602591398933611f4e565b6111a06007611fed565b7febb98688741ffa4c7589bf325de30cf7becb63de567842e1ccdb6cb949fdc82c33896040516111d1929190612e3b565b60405180910390a150505050505050505b565b6000600560008473ffffffffffffffffffffffffffffffffffffffff1673ffffffffffffffffffffffffffffffffffffffff16815260200190815260200160002060008373ffffffffffffffffffffffffffffffffffffffff1673ffffffffffffffffffffffffffffffffffffffff16815260200190815260200160002060009054906101000a900460ff16905092915050565b61130e8160405160240161128c9190612e7f565b6040516020818303038152906040527f41304fac000000000000000000000000000000000000000000000000000000007bffffffffffffffffffffffffffffffffffffffffffffffffffffffff19166020820180517bffffffffffffffffffffffffffffffffffffffffffffffffffffffff8381831617835250505050612003565b50565b60007f01ffc9a7000000000000000000000000000000000000000000000000000000007bffffffffffffffffffffffffffffffffffffffffffffffffffffffff1916827bffffffffffffffffffffffffffffffffffffffffffffffffffffffff1916149050919050565b600081600001549050919050565b60008073ffffffffffffffffffffffffffffffffffffffff166002600084815260200190815260200160002060009054906101000a900473ffffffffffffffffffffffffffffffffffffffff1673ffffffffffffffffffffffffffffffffffffffff1614159050919050565b600033905090565b816004600083815260200190815260200160002060006101000a81548173ffffffffffffffffffffffffffffffffffffffff021916908373ffffffffffffffffffffffffffffffffffffffff160217905550808273ffffffffffffffffffffffffffffffffffffffff1661147083610963565b73ffffffffffffffffffffffffffffffffffffffff167f8c5be1e5ebec7d5bd14f71427d1e84f3dd0314c0f7b2291e5b200ac8c7c3b92560405160405180910390a45050565b60006114c182611389565b611500576040517f08c379a00000000000000000000000000000000000000000000000000000000081526004016114f790612faf565b60405180910390fd5b600061150b83610963565b90508073ffffffffffffffffffffffffffffffffffffffff168473ffffffffffffffffffffffffffffffffffffffff16148061157a57508373ffffffffffffffffffffffffffffffffffffffff1661156284610597565b73ffffffffffffffffffffffffffffffffffffffff16145b8061158b575061158a81856111e4565b5b91505092915050565b8273ffffffffffffffffffffffffffffffffffffffff166115b482610963565b73ffffffffffffffffffffffffffffffffffffffff161461160a576040517f08c379a000000000000000000000000000000000000000000000000000000000815260040161160190612f2f565b60405180910390fd5b600073ffffffffffffffffffffffffffffffffffffffff168273ffffffffffffffffffffffffffffffffffffffff16141561167a576040517f08c379a000000000000000000000000000000000000000000000000000000000815260040161167190612f6f565b60405180910390fd5b61168583838361202c565b6116906000826113fd565b6001600360008573ffffffffffffffffffffffffffffffffffffffff1673ffffffffffffffffffffffffffffffffffffffff16815260200190815260200160002060008282546116e091906132b9565b925050819055506001600360008473ffffffffffffffffffffffffffffffffffffffff1673ffffffffffffffffffffffffffffffffffffffff168152602001908152602001600020600082825461173791906131d8565b92505081905550816002600083815260200190815260200160002060006101000a81548173ffffffffffffffffffffffffffffffffffffffff021916908373ffffffffffffffffffffffffffffffffffffffff160217905550808273ffffffffffffffffffffffffffffffffffffffff168473ffffffffffffffffffffffffffffffffffffffff167fddf252ad1be2c89b69c2b068fc378daa952ba7f163c4a11628f55a4df523b3ef60405160405180910390a46117f6838383612031565b505050565b60606000821415611843576040518060400160405280600181526020017f300000000000000000000000000000000000000000000000000000000000000081525090506119a3565b600082905060005b6000821461187557808061185e90613406565b915050600a8261186e919061322e565b915061184b565b60008167ffffffffffffffff8111156118b7577f4e487b7100000000000000000000000000000000000000000000000000000000600052604160045260246000fd5b6040519080825280601f01601f1916602001820160405280156118e95781602001600182028036833780820191505090505b5090505b6000851461199c5760018261190291906132b9565b9150600a85611911919061344f565b603061191d91906131d8565b60f81b818381518110611959577f4e487b7100000000000000000000000000000000000000000000000000000000600052603260045260246000fd5b60200101907effffffffffffffffffffffffffffffffffffffffffffffffffffffffffffff1916908160001a905350600a85611995919061322e565b94506118ed565b8093505050505b919050565b6000816040516020016119bb9190612c52565b6040516020818303038152906040528051906020012060001c9050919050565b611a7382826040516024016119f1929190612ea1565b6040516020818303038152906040527f9710a9d0000000000000000000000000000000000000000000000000000000007bffffffffffffffffffffffffffffffffffffffffffffffffffffffff19166020820180517bffffffffffffffffffffffffffffffffffffffffffffffffffffffff8381831617835250505050612003565b5050565b8173ffffffffffffffffffffffffffffffffffffffff168373ffffffffffffffffffffffffffffffffffffffff161415611ae6576040517f08c379a0000000000000000000000000000000000000000000000000000000008152600401611add90612f8f565b60405180910390fd5b80600560008573ffffffffffffffffffffffffffffffffffffffff1673ffffffffffffffffffffffffffffffffffffffff16815260200190815260200160002060008473ffffffffffffffffffffffffffffffffffffffff1673ffffffffffffffffffffffffffffffffffffffff16815260200190815260200160002060006101000a81548160ff0219169083151502179055508173ffffffffffffffffffffffffffffffffffffffff168373ffffffffffffffffffffffffffffffffffffffff167f17307eab39ab6107e8899845ad3d59bd9653f200f220920489ca2b5937696c3183604051611bd79190612e64565b60405180910390a3505050565b611bef848484611594565b611bfb84848484612036565b611c3a576040517f08c379a0000000000000000000000000000000000000000000000000000000008152600401611c3190612f0f565b60405180910390fd5b50505050565b606060405180602001604052806000815250905090565b6060611c6282611389565b611ca1576040517f08c379a0000000000000000000000000000000000000000000000000000000008152600401611c98906130af565b60405180910390fd5b6000611cab611c40565b90506000815111611ccb5760405180602001604052806000815250611cf6565b80611cd5846117fb565b604051602001611ce6929190612c69565b6040516020818303038152906040525b915050919050565b60606000825190506000811415611d275760405180602001604052806000815250915050611eb7565b60006003600283611d3891906131d8565b611d42919061322e565b6004611d4e919061325f565b90506000602082611d5f91906131d8565b67ffffffffffffffff811115611d9e577f4e487b7100000000000000000000000000000000000000000000000000000000600052604160045260246000fd5b6040519080825280601f01601f191660200182016040528015611dd05781602001600182028036833780820191505090505b5090506000604051806060016040528060408152602001613c07604091399050600181016020830160005b86811015611e745760038101905062ffffff818a015116603f8160121c168401518060081b905060ff603f83600c1c1686015116810190508060081b905060ff603f8360061c1686015116810190508060081b905060ff603f831686015116810190508060e01b90508084526004840193505050611dfb565b506003860660018114611e8e5760028114611e9e57611ea9565b613d3d60f01b6002830352611ea9565b603d60f81b60018303525b508484525050819450505050505b919050565b611ed68282604051806020016040528060008152506121cd565b5050565b611ee382611389565b611f22576040517f08c379a0000000000000000000000000000000000000000000000000000000008152600401611f199061302f565b60405180910390fd5b80600660008481526020019081526020016000209080519060200190611f49929190612425565b505050565b611fe8838383604051602401611f6693929190612ed1565b6040516020818303038152906040527fe3849f79000000000000000000000000000000000000000000000000000000007bffffffffffffffffffffffffffffffffffffffffffffffffffffffff19166020820180517bffffffffffffffffffffffffffffffffffffffffffffffffffffffff8381831617835250505050612003565b505050565b6001816000016000828254019250508190555050565b60008151905060006a636f6e736f6c652e6c6f679050602083016000808483855afa5050505050565b505050565b505050565b60006120578473ffffffffffffffffffffffffffffffffffffffff16612228565b156121c0578373ffffffffffffffffffffffffffffffffffffffff1663150b7a026120806113f5565b8786866040518563ffffffff1660e01b81526004016120a29493929190612def565b602060405180830381600087803b1580156120bc57600080fd5b505af19250505080156120ed57506040513d601f19601f820116820180604052508101906120ea9190612769565b60015b612170573d806000811461211d576040519150601f19603f3d011682016040523d82523d6000602084013e612122565b606091505b50600081511415612168576040517f08c379a000000000000000000000000000000000000000000000000000000000815260040161215f90612f0f565b60405180910390fd5b805181602001fd5b63150b7a0260e01b7bffffffffffffffffffffffffffffffffffffffffffffffffffffffff1916817bffffffffffffffffffffffffffffffffffffffffffffffffffffffff1916149150506121c5565b600190505b949350505050565b6121d7838361224b565b6121e46000848484612036565b612223576040517f08c379a000000000000000000000000000000000000000000000000000000000815260040161221a90612f0f565b60405180910390fd5b505050565b6000808273ffffffffffffffffffffffffffffffffffffffff163b119050919050565b600073ffffffffffffffffffffffffffffffffffffffff168273ffffffffffffffffffffffffffffffffffffffff1614156122bb576040517f08c379a00000000000000000000000000000000000000000000000000000000081526004016122b29061304f565b60405180910390fd5b6122c481611389565b15612304576040517f08c379a00000000000000000000000000000000000000000000000000000000081526004016122fb90612f4f565b60405180910390fd5b6123106000838361202c565b6001600360008473ffffffffffffffffffffffffffffffffffffffff1673ffffffffffffffffffffffffffffffffffffffff168152602001908152602001600020600082825461236091906131d8565b92505081905550816002600083815260200190815260200160002060006101000a81548173ffffffffffffffffffffffffffffffffffffffff021916908373ffffffffffffffffffffffffffffffffffffffff160217905550808273ffffffffffffffffffffffffffffffffffffffff16600073ffffffffffffffffffffffffffffffffffffffff167fddf252ad1be2c89b69c2b068fc378daa952ba7f163c4a11628f55a4df523b3ef60405160405180910390a461242160008383612031565b5050565b828054612431906133a3565b90600052602060002090601f016020900481019282612453576000855561249a565b82601f1061246c57805160ff191683800117855561249a565b8280016001018555821561249a579182015b8281111561249957825182559160200191906001019061247e565b5b5090506124a791906124ab565b5090565b5b808211156124c45760008160009055506001016124ac565b5090565b60006124db6124d68461314f565b61312a565b9050828152602081018484840111156124f357600080fd5b6124fe848285613361565b509392505050565b60008135905061251581613b85565b92915050565b60008135905061252a81613b9c565b92915050565b60008135905061253f81613bb3565b92915050565b60008151905061255481613bb3565b92915050565b600082601f83011261256b57600080fd5b813561257b8482602086016124c8565b91505092915050565b60008135905061259381613bca565b92915050565b6000602082840312156125ab57600080fd5b60006125b984828501612506565b91505092915050565b600080604083850312156125d557600080fd5b60006125e385828601612506565b92505060206125f485828601612506565b9150509250929050565b60008060006060848603121561261357600080fd5b600061262186828701612506565b935050602061263286828701612506565b925050604061264386828701612584565b9150509250925092565b6000806000806080858703121561266357600080fd5b600061267187828801612506565b945050602061268287828801612506565b935050604061269387828801612584565b925050606085013567ffffffffffffffff8111156126b057600080fd5b6126bc8782880161255a565b91505092959194509250565b600080604083850312156126db57600080fd5b60006126e985828601612506565b92505060206126fa8582860161251b565b9150509250929050565b6000806040838503121561271757600080fd5b600061272585828601612506565b925050602061273685828601612584565b9150509250929050565b60006020828403121561275257600080fd5b600061276084828501612530565b91505092915050565b60006020828403121561277b57600080fd5b600061278984828501612545565b91505092915050565b6000602082840312156127a457600080fd5b60006127b284828501612584565b91505092915050565b6127c4816132ed565b82525050565b6127d3816132ff565b82525050565b60006127e482613195565b6127ee81856131ab565b93506127fe818560208601613370565b6128078161353c565b840191505092915050565b600061281d826131a0565b61282781856131bc565b9350612837818560208601613370565b6128408161353c565b840191505092915050565b6000612856826131a0565b61286081856131cd565b9350612870818560208601613370565b80840191505092915050565b60008154612889816133a3565b61289381866131cd565b945060018216600081146128ae57600181146128bf576128f2565b60ff198316865281860193506128f2565b6128c885613180565b60005b838110156128ea578154818901526001820191506020810190506128cb565b838801955050505b50505092915050565b60006129086032836131bc565b91506129138261354d565b604082019050919050565b600061292b6025836131bc565b91506129368261359c565b604082019050919050565b600061294e601c836131bc565b9150612959826135eb565b602082019050919050565b6000612971600a836131cd565b915061297c82613614565b600a82019050919050565b60006129946024836131bc565b915061299f8261363d565b604082019050919050565b60006129b76019836131bc565b91506129c28261368c565b602082019050919050565b60006129da6063836131cd565b91506129e5826136b5565b606382019050919050565b60006129fd600b836131cd565b9150612a0882613750565b600b82019050919050565b6000612a20602c836131bc565b9150612a2b82613779565b604082019050919050565b6000612a43600d836131cd565b9150612a4e826137c8565b600d82019050919050565b6000612a666038836131bc565b9150612a71826137f1565b604082019050919050565b6000612a89602a836131bc565b9150612a9482613840565b604082019050919050565b6000612aac6029836131bc565b9150612ab78261388f565b604082019050919050565b6000612acf602e836131bc565b9150612ada826138de565b604082019050919050565b6000612af26002836131cd565b9150612afd8261392d565b600282019050919050565b6000612b156020836131bc565b9150612b2082613956565b602082019050919050565b6000612b386031836131bc565b9150612b438261397f565b604082019050919050565b6000612b5b602c836131bc565b9150612b66826139ce565b604082019050919050565b6000612b7e602f836131bc565b9150612b8982613a1d565b604082019050919050565b6000612ba1600a836131cd565b9150612bac82613a6c565b600a82019050919050565b6000612bc46021836131bc565b9150612bcf82613a95565b604082019050919050565b6000612be7600a836131cd565b9150612bf282613ae4565b600a82019050919050565b6000612c0a601d836131cd565b9150612c1582613b0d565b601d82019050919050565b6000612c2d6031836131bc565b9150612c3882613b36565b604082019050919050565b612c4c81613357565b82525050565b6000612c5e828461284b565b915081905092915050565b6000612c75828561284b565b9150612c81828461284b565b91508190509392505050565b6000612c99828661284b565b9150612ca5828561284b565b9150612cb1828461284b565b9150819050949350505050565b6000612cca828761287c565b9150612cd6828661284b565b9150612ce2828561284b565b9150612cee828461284b565b9150612cf982612a36565b915081905095945050505050565b6000612d1282612964565b9150612d1e828461284b565b915081905092915050565b6000612d34826129f0565b9150612d40828461284b565b915081905092915050565b6000612d5682612b94565b9150612d62828561284b565b9150612d6d826129cd565b9150612d79828461284b565b9150612d8482612ae5565b91508190509392505050565b6000612d9b82612bda565b9150612da7828461284b565b915081905092915050565b6000612dbd82612bfd565b9150612dc9828461284b565b915081905092915050565b6000602082019050612de960008301846127bb565b92915050565b6000608082019050612e0460008301876127bb565b612e1160208301866127bb565b612e1e6040830185612c43565b8181036060830152612e3081846127d9565b905095945050505050565b6000604082019050612e5060008301856127bb565b612e5d6020830184612c43565b9392505050565b6000602082019050612e7960008301846127ca565b92915050565b60006020820190508181036000830152612e998184612812565b905092915050565b60006040820190508181036000830152612ebb8185612812565b9050612eca6020830184612c43565b9392505050565b60006060820190508181036000830152612eeb8186612812565b9050612efa6020830185612c43565b612f0760408301846127bb565b949350505050565b60006020820190508181036000830152612f28816128fb565b9050919050565b60006020820190508181036000830152612f488161291e565b9050919050565b60006020820190508181036000830152612f6881612941565b9050919050565b60006020820190508181036000830152612f8881612987565b9050919050565b60006020820190508181036000830152612fa8816129aa565b9050919050565b60006020820190508181036000830152612fc881612a13565b9050919050565b60006020820190508181036000830152612fe881612a59565b9050919050565b6000602082019050818103600083015261300881612a7c565b9050919050565b6000602082019050818103600083015261302881612a9f565b9050919050565b6000602082019050818103600083015261304881612ac2565b9050919050565b6000602082019050818103600083015261306881612b08565b9050919050565b6000602082019050818103600083015261308881612b2b565b9050919050565b600060208201905081810360008301526130a881612b4e565b9050919050565b600060208201905081810360008301526130c881612b71565b9050919050565b600060208201905081810360008301526130e881612bb7565b9050919050565b6000602082019050818103600083015261310881612c20565b9050919050565b60006020820190506131246000830184612c43565b92915050565b6000613134613145565b905061314082826133d5565b919050565b6000604051905090565b600067ffffffffffffffff82111561316a5761316961350d565b5b6131738261353c565b9050602081019050919050565b60008190508160005260206000209050919050565b600081519050919050565b600081519050919050565b600082825260208201905092915050565b600082825260208201905092915050565b600081905092915050565b60006131e382613357565b91506131ee83613357565b9250827fffffffffffffffffffffffffffffffffffffffffffffffffffffffffffffffff0382111561322357613222613480565b5b828201905092915050565b600061323982613357565b915061324483613357565b925082613254576132536134af565b5b828204905092915050565b600061326a82613357565b915061327583613357565b9250817fffffffffffffffffffffffffffffffffffffffffffffffffffffffffffffffff04831182151516156132ae576132ad613480565b5b828202905092915050565b60006132c482613357565b91506132cf83613357565b9250828210156132e2576132e1613480565b5b828203905092915050565b60006132f882613337565b9050919050565b60008115159050919050565b60007fffffffff0000000000000000000000000000000000000000000000000000000082169050919050565b600073ffffffffffffffffffffffffffffffffffffffff82169050919050565b6000819050919050565b82818337600083830152505050565b60005b8381101561338e578082015181840152602081019050613373565b8381111561339d576000848401525b50505050565b600060028204905060018216806133bb57607f821691505b602082108114156133cf576133ce6134de565b5b50919050565b6133de8261353c565b810181811067ffffffffffffffff821117156133fd576133fc61350d565b5b80604052505050565b600061341182613357565b91507fffffffffffffffffffffffffffffffffffffffffffffffffffffffffffffffff82141561344457613443613480565b5b600182019050919050565b600061345a82613357565b915061346583613357565b925082613475576134746134af565b5b828206905092915050565b7f4e487b7100000000000000000000000000000000000000000000000000000000600052601160045260246000fd5b7f4e487b7100000000000000000000000000000000000000000000000000000000600052601260045260246000fd5b7f4e487b7100000000000000000000000000000000000000000000000000000000600052602260045260246000fd5b7f4e487b7100000000000000000000000000000000000000000000000000000000600052604160045260246000fd5b6000601f19601f8301169050919050565b7f4552433732313a207472616e7366657220746f206e6f6e20455243373231526560008201527f63656976657220696d706c656d656e7465720000000000000000000000000000602082015250565b7f4552433732313a207472616e736665722066726f6d20696e636f72726563742060008201527f6f776e6572000000000000000000000000000000000000000000000000000000602082015250565b7f4552433732313a20746f6b656e20616c7265616479206d696e74656400000000600082015250565b7f54484952445f574f524400000000000000000000000000000000000000000000600082015250565b7f4552433732313a207472616e7366657220746f20746865207a65726f2061646460008201527f7265737300000000000000000000000000000000000000000000000000000000602082015250565b7f4552433732313a20617070726f766520746f2063616c6c657200000000000000600082015250565b7f222c20226465736372697074696f6e223a20224120686967686c79206163636c60008201527f61696d656420636f6c6c656374696f6e206f6620737175617265732e222c202260208201527f696d616765223a2022646174613a696d6167652f7376672b786d6c3b6261736560408201527f36342c0000000000000000000000000000000000000000000000000000000000606082015250565b7f5345434f4e445f574f5244000000000000000000000000000000000000000000600082015250565b7f4552433732313a206f70657261746f7220717565727920666f72206e6f6e657860008201527f697374656e7420746f6b656e0000000000000000000000000000000000000000602082015250565b7f3c2f746578743e3c2f7376673e00000000000000000000000000000000000000600082015250565b7f4552433732313a20617070726f76652063616c6c6572206973206e6f74206f7760008201527f6e6572206e6f7220617070726f76656420666f7220616c6c0000000000000000602082015250565b7f4552433732313a2062616c616e636520717565727920666f7220746865207a6560008201527f726f206164647265737300000000000000000000000000000000000000000000602082015250565b7f4552433732313a206f776e657220717565727920666f72206e6f6e657869737460008201527f656e7420746f6b656e0000000000000000000000000000000000000000000000602082015250565b7f45524337323155524953746f726167653a2055524920736574206f66206e6f6e60008201527f6578697374656e7420746f6b656e000000000000000000000000000000000000602082015250565b7f227d000000000000000000000000000000000000000000000000000000000000600082015250565b7f4552433732313a206d696e7420746f20746865207a65726f2061646472657373600082015250565b7f45524337323155524953746f726167653a2055524920717565727920666f722060008201527f6e6f6e6578697374656e7420746f6b656e000000000000000000000000000000602082015250565b7f4552433732313a20617070726f76656420717565727920666f72206e6f6e657860008201527f697374656e7420746f6b656e0000000000000000000000000000000000000000602082015250565b7f4552433732314d657461646174613a2055524920717565727920666f72206e6f60008201527f6e6578697374656e7420746f6b656e0000000000000000000000000000000000602082015250565b7f7b226e616d65223a202200000000000000000000000000000000000000000000600082015250565b7f4552433732313a20617070726f76616c20746f2063757272656e74206f776e6560008201527f7200000000000000000000000000000000000000000000000000000000000000602082015250565b7f46495253545f574f524400000000000000000000000000000000000000000000600082015250565b7f646174613a6170706c69636174696f6e2f6a736f6e3b6261736536342c000000600082015250565b7f4552433732313a207472616e736665722063616c6c6572206973206e6f74206f60008201527f776e6572206e6f7220617070726f766564000000000000000000000000000000602082015250565b613b8e816132ed565b8114613b9957600080fd5b50565b613ba5816132ff565b8114613bb057600080fd5b50565b613bbc8161330b565b8114613bc757600080fd5b50565b613bd381613357565b8114613bde57600080fd5b5056fe416e204e465420772f20494420257320686173206265656e206d696e74656420746f2025734142434445464748494a4b4c4d4e4f505152535455565758595a6162636465666768696a6b6c6d6e6f707172737475767778797a303132333435363738392b2fa264697066735822122054a28faf55a7964ac5f48ca0fab6dec89227d1e821b997fef29ad2066cae1c5664736f6c634300080400333c73766720786d6c6e733d27687474703a2f2f7777772e77332e6f72672f323030302f73766727207072657365727665417370656374526174696f3d27784d696e594d696e206d656574272076696577426f783d273020302033353020333530273e3c7374796c653e2e62617365207b2066696c6c3a2077686974653b20666f6e742d66616d696c793a2073657269663b20666f6e742d73697a653a20323470783b207d3c2f7374796c653e3c726563742077696474683d273130302527206865696768743d2731303025272066696c6c3d27626c61636b27202f3e3c7465787420783d273530252720793d273530252720636c6173733d27626173652720646f6d696e616e742d626173656c696e653d276d6964646c652720746578742d616e63686f723d276d6964646c65273e",
  "linkReferences": {},
  "deployedLinkReferences": {}
}